:020000040800F2
:1000000088060010B960000809610008ED2D00089D
:10001000F32D0008F92D0008FF2D00080000000056
:10002000000000000000000000000000790200084D
:100030000961000800000000110300082103000806
:1000400009610008096100080961000809610008E8
:1000500009610008096100080961000809610008D8
:1000600009610008096100080961000809610008C8
:1000700009610008096100080961000809610008B8
:10008000096100080961000809610008B5630008FA
:10009000A563000809610008C5630008096100083C
:1000A0000961000809610008096100080961000888
:1000B0000961000809610008096100080961000878
:1000C0000961000809610008096100080961000868
:1000D0000961000809610008096100080961000858
:1000E0000961000809610008096100080961000848
:1000F0000961000809610008096100080961000838
:100100000961000809610008096100080961000827
:100110000961000809610008096100080961000817
:100120000961000809610008096100080961000807
:1001300009610008096100080961000809610008F7
:1001400009610008096100080961000809610008E7
:1001500009610008096100080961000809610008D7
:1001600009610008096100080961000809610008C7
:100170000961000809610008096100080000000029
:10018000096100080961000810B5054C237833B9EE
:10019000044B13B10448AFF300800123237010BD5A
:1001A000100A002000000000A49A000808B5034BC4
:1001B0001BB103490348AFF3008008BD00000000F5
:1001C000140A0020A49A0008154B002B08BF134BFB
:1001D0009D46A3F5803A00218B460F461348144AEA
:1001E000121A08F05BF80F4B002B00D098470E4B0B
:1001F000002B00D098470020002104000D000D487E
:10020000002802D00C4803F0ABFB07F045FC2000AF
:10021000290001F0FBFD03F0FDFD00BF0000080018
:1002200088060010000000006D1D0008100A002064
:1002300050290020613900080000000000B589B095
:10024000002301930293039304930593069307936A
:10025000052101A802F07AF805E0049A13604FF432
:10026000967003F007FE029B1A68019B1A42F4D1B4
:10027000039A1360F3E700001EF0040F0CBFEFF3C6
:100280000880EFF30980816911F8021C91BB01B568
:1002900090E80F10E047BDE800508CE80300244BC5
:1002A00093E80600914208BF704741B91EF0100F55
:1002B00010D12049086820F0010008600AE02CE90C
:1002C000F00F1EF0100F08BF2CED108AC1F838C0D7
:1002D00081F822E01A6092F82210906B61F0FF0E14
:1002E0001EF0100F08BFB0EC108AB0E8F00F80F3DA
:1002F00009887047104A13689942FAD801B552F834
:1003000021C00FC8E047BDE80050CCF8000070479E
:1003100001B501F0A1F8BDE80140EFF3098CBEE79B
:1003200001B501F055F8BDE80140EFF3098CB6E7DF
:100330001800002034EF00E0808A000808B900208F
:10034000704708B50146132001F0F0FB002008BDFE
:1003500008B5EFF305836BB9EFF3108323B9EFF31F
:10036000118313B1012300E001231BB9DFF814C08E
:1003700000DF08BD6FF0050000F006F86FF0050023
:10038000F7E700BF3D030008704700005E4B1B7A93
:10039000012B00F0B68010B5002B40F09C805A4C29
:1003A0009C22002104F1080007F078FF574BDA681F
:1003B000E2651A8AA4F854209A682264DC6A196BF0
:1003C000204600F00DFA10B14F4BC3F880404F4B60
:1003D0005C699969204600F003FA002800F08280E9
:1003E000494B5C67494BDC69196A204600F0F8F913
:1003F00000287CD0444B9C67444B5C6A996A204639
:1004000000F0EEF9002877D03F4BDC673F4B5C6B88
:1004100044B1E368A2682168204600F065FA3A4BCF
:10042000C3F88440394B9C6B44B1E368A2682168EF
:10043000204600F059FA344BC3F88840334BDC6B4C
:1004400044B1E368A2682168204600F04DFA2E4BC3
:10045000C3F88C402D4B1C6C44B1E368A268216842
:10046000204600F041FA284BC3F89040274B5C6CC3
:1004700044B1E368A2682168204600F035FA224BB7
:10048000C3F89440214B9C6C44B1E368A268216896
:10049000204600F029FA1C4BC3F898401B4BDC6C3B
:1004A00044B1E368A2682168204600F01DFA164BAB
:1004B000C3F89C40154B1C6D44B1E368A2682168E9
:1004C000204600F011FA104BC3F8A0400E4B012259
:1004D0001A72002010BD4FF0FF3001F0BBFD4FF04D
:1004E000FF30F7E7084BD3F880205A677AE7064BCE
:1004F000D3F880209A677FE7034BD3F88020DA6730
:1005000084E70020704700BF04000020188A00081C
:1005100008B5084B00225A72BFF34F8F9B7A2BB15C
:10052000044B9A72044B4FF080525A6001F01CFE4B
:1005300008BD00BF0400002000ED00E038B52F4BDF
:100540001B7A012B3ED101F045FB002841D02C4BFA
:10055000FF2283F8222093F8223063F0FF03DB436D
:100560003ED0B3FA83F3C3F12003254AD268C2F325
:100570000222934200D8531CFE2202FA03F3DBB29C
:100580001F4AD3771F49204B586801F0A9FD054643
:1005900040BB01F0FFFD194C206101F0E5FD04F1C5
:1005A0001C0001F0B9F801F04BF9174B1B6813F070
:1005B000010F1ED0022383F31488104B02221A72FB
:1005C000284638BD6FF0060001F044FD4FF0FF35BE
:1005D000F6E74FF0FF3001F03DFD4FF0FF35EFE75C
:1005E0002023C0E74FF0FF3001F034FD4FF0FF351E
:1005F000E6E7032383F31488DFE700BF040000204D
:1006000000ED00E021030008188A000808B501F099
:10061000B1FD094B01225A72BFF34F8F074B5B6844
:1006200013F0805F06D0054B4FF000625A60024B1A
:1006300001229A7208BD00BF0400002000ED00E016
:1006400008B50F4B1B7A022B05D06FF0070001F0A5
:1006500001FD00200FE0FFF7D9FF094BDB6A5BB11A
:10066000D869074B5B6C1BB11B69834200D21846EB
:10067000034B04221A7208BD4FF0FF30F1E700BFB0
:100680000400002038B51D4B1B7A042B23D10446EF
:100690001A4BDA680244DA60DB6A8BB1054604E083
:1006A000551BDD6100255BB155B1DA69AA42F7D867
:1006B000AD1A0122DA6101F05FF8104BDB6AF2E754
:1006C0000E4B5B6C7BB90D4B02221A72002001F0BD
:1006D000C1F8FFF71DFF38BD001B18610024002B77
:1006E000F1D0002CEFD01869A042F5D8241A0122CD
:1006F0001A61024D2B6D98476B6CF0E704000020E7
:100700007047000008B5FFF7FBFFEFF305836BB9F7
:10071000EFF3108323B9EFF3118313B1012300E04A
:1007200001231BB9DFF814C000DF08BD6FF005001E
:1007300001F090FC6FF00500F7E700BF8D030008A3
:1007400008B5EFF305836BB9EFF3108323B9EFF32B
:10075000118313B1012300E001231BB9DFF814C09A
:1007600000DF08BD6FF0050001F074FC6FF00500BC
:10077000F7E700BF3D05000808B5EFF305834BB967
:10078000EFF3108323B9EFF3118313B1012300E0DA
:1007900001232BB16FF0050001F05CFC002008BDC7
:1007A000DFF804C000DFFAE74106000808B5EFF300
:1007B00005834BB9EFF3108323B9EFF3118313B122
:1007C000012300E0012323B16FF0050001F042FC9A
:1007D00008BDDFF808C000DFFAE700BF85060008A3
:1007E000D0B1034610F0070018D111F0070219D15B
:1007F000172915D910B419601020586003F10804A6
:1008000008395A189A6000225A509B6858606260F2
:1008100001205DF8044B70470020704700207047AE
:10082000104670477047F0B40746B0B1002931D088
:1008300032F0030330D10F3121F0070500F1080336
:1008400019461B680E46581A4C6824F00304001B16
:10085000854204D918680028F2D1F0BC7047786846
:10086000284478603B68083B1F447B68984200D965
:1008700078604B6823B915434D6006F10800ECE73A
:1008800023F00303F0180C68F4501543456008602A
:100890000830E2E70020E0E70020DEE7E0B110B436
:1008A0000446D9B1083900F1080300208B4204D076
:1008B0001A681846A2B11346F8E75A6822F00301F5
:1008C0006268521A626018B11B680360012008E078
:1008D00000225A60012004E000207047002000E060
:1008E00000205DF8044B7047C8B110B40446C1B194
:1008F000CAB1D3B1016000206060A260E3606361AF
:1009000002FB01302061013903D09C181C60234692
:10091000F9E700221A6001205DF8044B70470020BF
:1009200070470846F8E71046F6E70020F4E703466C
:10093000D0B110B400F1140252E8001F11B9BFF396
:100940002F8F04E0086842E8000404B1F4E7084689
:1009500039B1043353E8002F511C43E8001404B1AB
:10096000F8E75DF8044B7047704708B30346C26868
:100970008A4220D802698A4220D930B400F1140298
:1009800010680860BFF35F8F52E8000F0C68844264
:10099000F6D142E8001505B1F2E7043353E8002F21
:1009A000511E43E8001000B1F8E7002030BC70474A
:1009B0006FF0030070476FF0030070476FF00300A3
:1009C000704730B4036BE3B1002501E01D465B685E
:1009D0001BB1DC78CA789442F8D34B608D6063B168
:1009E000996065B16960283050E8003F5A1C40E8C2
:1009F000002101B1F8E730BC7047C162F1E7016343
:100A0000F1E700234B608B60C1620163EBE710B438
:100A100000F1280353E8002F12B9BFF32F8F04E031
:100A2000511E43E8001404B1F4E76AB1C06A60B132
:100A3000831C0121D3E84F2FC3E8441F04B1F9E719
:100A4000D2B212B18068F2E700205DF8044B704723
:100A50004B6833B18A689A608B682BB14A685A60D8
:100A600070478B68C362F7E74B680363704770B5E4
:100A70000446837853B98568AB6813B15B78832BE0
:100A800037D021462846FFF79CFF70BDC568014658
:100A90002846FFF7DDFF0023237005F10C062146F1
:100AA0003046FFF762FFAB68002BEED03046FFF711
:100AB0003EFF04460028E8D0284600F02DFE0646FA
:100AC0000022114600F0F6FE304600F099FE064680
:100AD0006A6A816804F10C0007F046FBF923237071
:100AE0000023A370337BE37021462846FFF769FF9C
:100AF000CBE7284600F010FE06460022114600F023
:100B0000D9FE304600F07CFE06466A6A04F10C010C
:100B1000806807F029FBF3680BB1E2781A700023B4
:100B20002370214605F10C00FFF71FFFADE7000021
:100B30002DE9F84F78B30D46064661B3CB1C23F080
:100B40000303B0FA80F113F10C072BD0B7FA87F347
:100B50000B441F2B28D907FB06FA002A43D0D2F8F2
:100B600000909468D2F8108053695CB314F0030FBE
:100B700021D1D268332A1ED9B8F1000F2BD018F03A
:100B8000030F01D19A4531D96FF00901002001F01E
:100B900079FA002449E06FF00301002001F072FAB5
:100BA000002442E02023D3E76FF00301002001F08E
:100BB00069FA002439E06FF00801002001F062FAC0
:100BC000002432E0D268002AD6D06FF0080100205D
:100BD00001F058FA29E04BB16FF00901002001F053
:100BE00051FA444621E091469046144604B34FF032
:100BF000000B14B1B8F1000F2FD0002C55D0FA2300
:100C0000237084F802B0C4F804900023A3606562E6
:100C1000A362E362236343463A46314604F10C0083
:100C2000FFF762FE244B254A1A672046BDE8F88F7D
:100C3000214BD3F8A00028B1FFF779FE04464FF00E
:100C4000010BD6E7012234211B4BD3F88000FFF7BC
:100C5000EAFD04464FF0010BCBE700225146164B4C
:100C6000D86FFFF7E0FD804630B15246002107F013
:100C700015FB4BF0020BC0E71BF0010F13D00E4B1E
:100C8000D3F8A0A0BAF1000F05D021465046FFF7D7
:100C90006CFE4446EDE72146074BD3F88000FFF792
:100CA000FDFD5446E5E70446E3E76FF0040100204C
:100CB00001F0E8F9B9E700BF040000206F0A00085E
:100CC0002DE9F041044610B30D46164698460378C8
:100CD000FA2B1CD1D9B1826812B15378832B1ED064
:100CE00004F10C00FFF723FE074668B3626A294649
:100CF0000C3007F039FAF9233B700025BD70FE7007
:100D000039462046FFF75DFE2846BDE8F0816FF0CA
:100D10000301204601F0B6F96FF00300F5E700F09B
:100D2000FBFC07460122002100F0C4FD384600F01C
:100D300067FD0746626A2946806807F015FAFB6876
:100D4000CBB11E700020E0E7B8F1000F15D041468E
:100D5000932000F0EBFE10B96FF00100D5E7084BCF
:100D60005969204600F0C4FCEFF309839D60DE6002
:100D70006FF00100C9E70020C7E76FF00200C4E789
:100D8000040000202DE9F041044600284AD00D4619
:100D900016461F460378FA2B44D1002942D0FFF7AC
:100DA00036FE8046002845D001462046FFF750FE1B
:100DB000626A08F10C01284607F0D6F916B198F8D6
:100DC00003303370002388F8003004F10C054146ED
:100DD0002846FFF7CAFDA368002B41D02846FFF73D
:100DE000A6FD064600283DD0204600F095FC0546AD
:100DF0000122002100F05EFD284600F001FD0746BB
:100E0000626A816806F10C0007F0AEF9F9233370CD
:100E10000025B5703B7BF37031462046FFF7D1FDCE
:100E200028460FE06FF00301204601F02BF96FF028
:100E3000030007E0C7B13946832000F077FE18B9F8
:100E40006FF00100BDE8F081094B5969204600F0C0
:100E50004FFCEFF309839D60DE606FF00100F1E766
:100E60000020EFE70020EDE76FF00200EAE700BFA7
:100E70000400002008B5EFF305836BB9EFF310838E
:100E800023B9EFF3118313B1012300E001231BB950
:100E9000DFF814C000DF08BD6FF00501002001F08D
:100EA000F1F80020F7E700BF310B00082DE9F04111
:100EB00004460D469046EFF3058149B9EFF31082E1
:100EC00022B9EFF3118212B1012200E001224AB3EC
:100ED000ECB12278FA2A1AD1CDB1C3B904F10C00D1
:100EE000FFF725FD0646D0B1626A29460C3007F0AF
:100EF0003BF9F92333700027B77086F803807560DB
:100F0000B460304600F0E0FA3846BDE8F0816FF09A
:100F10000301204601F0B6F86FF00300F5E76FF02B
:100F20000200F2E7204629464246DFF808C000DF0B
:100F3000EBE700BFC10C0008F8B504460D461646A5
:100F4000EFF305824AB9EFF3108222B9EFF3118271
:100F500012B1012200E0012222B3C4B12278FA2AA0
:100F600015D1A5B19BB92046FFF751FD0746B0B199
:100F7000626A00F10C01284607F0F6F80EB1FB7822
:100F80003370FC60384600F09FFA0020F8BD6FF027
:100F90000301204601F076F86FF00300F6E76FF0EA
:100FA0000200F3E7204629463246DFF808C000DF9A
:100FB000ECE700BF850D000870B548B305684668CA
:100FC0008468E4B114F0030F12D1C3681B2B0FD94E
:100FD00014B300239CB3F5222270A370E670656001
:100FE0000023A360E360236163612376204670BD24
:100FF0006FF00801002001F03DF80024F6E7C36817
:10100000002BE5D06FF00801002001F033F8EDE788
:10101000054604460026DBE70C4BD3F8940020B1CC
:10102000FFF785FC04460123D4E701221C21074B6E
:10103000D3F88000FFF7F7FB04460123CAE76FF0FF
:101040000401002001F016F8D0E700BF04000020E2
:1010500070B504462D4B5D698DB10E46B0B1037875
:10106000F52B13D1037ECBB9C5600361EB6A4361F5
:1010700003B11861EC6201232376002070BD6FF08C
:10108000070100F0F7FF4FF0FF30F7E76FF00301C3
:10109000204600F0EFFF6FF00300EFE7C27812F098
:1010A000010F02D0C168A94212D05EB312F0020F44
:1010B00006D0E36893F9201095F92020914214DBC3
:1010C0003146532000F032FDA8B96FF00100D5E79A
:1010D000FF2B03D0013303760020CFE76FF00F0121
:1010E00000F0C8FF6FF00200C8E783F82020E06836
:1010F00000F025FBE4E72946204600F0F9FA6FF0FE
:101100000100BBE76FF00200B8E700BF0400002059
:1011100038B50446344B5969E9B118B30378F52B57
:1011200020D1037E33B3C2688A422AD1013BDBB2AD
:101130000376002B55D143690BB102691A6123690B
:1011400033B362695A61E37813F0020F30D091F93A
:101150002100CB6A20E06FF0070100F08BFF4FF019
:10116000FF303DE06FF00301204600F083FF6FF099
:10117000030035E06FF00E0100F07CFF6FF002001D
:101180002EE06FF00D0100F075FF6FF0020027E018
:101190006369CB62D7E75B6943B19A68002AFAD0EA
:1011A00092F920208242F6DD1046F4E781F8200013
:1011B000A3688BB1204600F0AFFA05460022114625
:1011C00000F078FBE56000232361EB6A636103B103
:1011D0001C61EC6201232376002000F03BFB002021
:1011E00038BD0020FCE700BF0400002070B50446B5
:1011F00003E0F462012323762C46D4B16569E378D9
:1012000013F0080FF8D000232376A368002BF3D047
:10121000204600F081FA06460022114600F04AFB03
:10122000E66000232361F36A6361002BE1D01C6157
:10123000DFE770BDC37813F0020F1ED010B5C06891
:1012400090F92140C26A03E09B6804E0526952B100
:1012500093688B42F8D0002BF8D093F92030A3424A
:10126000F4DD1C46F2E790F92030A34200D110BD16
:1012700080F8204000F063FAF9E7704708B5EFF313
:1012800005836BB9EFF3108323B9EFF3118313B127
:10129000012300E001231BB9DFF814C000DF08BD03
:1012A0006FF00501002000F0E5FE0020F7E700BF29
:1012B000B90F000808B5EFF305836BB9EFF310839E
:1012C00023B9EFF3118313B1012300E001231BB90C
:1012D000DFF814C000DF08BD6FF0050100F0CAFEA2
:1012E0006FF00500F7E700BF5110000808B5EFF3F5
:1012F00005836BB9EFF3108323B9EFF3118313B1B7
:10130000012300E001231BB9DFF814C000DF08BD92
:101310006FF0050100F0AEFE6FF00500F7E700BFCB
:101320001111000830B4134BB3F854205633D3E8EE
:101330005F1F8A4202D8BFF32F8F04E04C1CC3E822
:10134000554F05B1F3E78BB29A4211D90A4BD3E856
:101350005F1F4C1CA24200D80024C3E8554F05B1C2
:10136000F5E78AB25B6843F82200012030BC704781
:101370000020FBE7040000205C00002010B4134BA9
:10138000B3F854105633D3E85F2F12B9BFF32F8F41
:1013900004E0501EC3E8540F04B1F4E792B292B1D6
:1013A0000433D3E85F2F501C814200D80020C3E8EB
:1013B000540F04B1F5E792B2D3F8023053F822008B
:1013C0005DF8044B70470020FAE700BF04000020DE
:1013D00038B500F0D7FE1F4BDA680132DA601B6DBA
:1013E00003B1984700F0C8F9002000F033FA194B18
:1013F0001B6C3BB1174A916B9269914203D015491E
:101400008A63CB6338BD134BDB6B13B1013B114ACD
:10141000D363104BDB6B002BF4D10E4B1B7A022BEA
:10142000F0D10C4B5C6A002CECD094F9202091F99F
:1014300020309A42E6D1204600F077F9054DA86B9E
:1014400000F090F9204600F0FBF9AC632B6CEB63E5
:10145000D8E700BF0400002008B502E0194B1B6E5E
:101460009847FFF78BFF48B30378F13B082BF8D878
:1014700001A151F823F000BF5D14000863140008B7
:101480009D1400086314000863140008A5140008E4
:10149000AD14000863140008B5140008094B5B6E16
:1014A0009847DEE7074B9B6E9847DAE7054BDB6E04
:1014B0009847D6E7034B1B6F9847D2E7002000F010
:1014C000C9F908BD0400002010B50446FFF72AFF43
:1014D00058B1084B5B7A23B9074B4FF080525A60E2
:1014E00010BD044B01229A72FAE72146022000F057
:1014F00069FDF5E70400002000ED00E012F0020FA6
:1015000029D110B412F0010F14D000F1280353E8D0
:10151000000F00EA01028A4203D0BFF32F8F0020A0
:1015200005E020EA010243E8002404B1EFE75DF89A
:10153000044B704700F1280353E8000F084203D121
:10154000BFF32F8F002005E020EA010243E80024CA
:1015500004B1F1E7EBE7806A12F0010204D031EA4E
:10156000000301D00020704722B9084200D0704724
:101570000020704770470378F12B01D1C068FAE76B
:1015800070470000B1F1FF3F0BD010B4154BDB6A80
:101590000024B3B1DA698A4213D8891A1C461B6940
:1015A000F7E7104B1B6B002213B11A461B69FBE7D0
:1015B000C161426103610AB110617047094B186350
:1015C0007047C1614461036144B120611BB1DA69B4
:1015D000511AD96158615DF8044B7047014AD062D5
:1015E000F4E700BF04000020C369B3F1FF3F0ED051
:1015F00002692AB1D1690B44D361036942695A6116
:1016000043699BB102691A61002343617047036912
:101610000BB142695A61436923B102691A6100231F
:10162000436170470269034B1A6370470269014BBB
:10163000DA6270470400002010B40123437090F96F
:10164000204009494B6A1C3133B193F92020944260
:1016500002DA19469B68F7E7C1608360886003B1CE
:10166000D8605DF8044B704704000020014B5869B6
:10167000704700BF0400002010B5044600234370EB
:101680000370837813F0020F08D013F0100F11D0FD
:10169000016B0F4BD3F88400FFF767F9A37813F0C1
:1016A000010F06D00A4BD3F8880048B12146FFF756
:1016B0005CF910BD016B064B586FFFF7EFF8EDE7D3
:1016C0002146034BD3F88000FFF7E8F8F1E700BFAD
:1016D0000400002008B500F0DDFCDFF810C000DFDA
:1016E0004FF0FF31002000F0BDFCFEE7651B000855
:1016F00010B491F92040836833B193F920209442CB
:1017000002DC18469B68F7E7C8608B60816003B114
:10171000D9605DF8044B70470346806882689A6020
:1017200002B1D3600023C3607047C36833B18268DD
:101730009A600AB1C368D3600023C360704738B5AC
:101740000546044624B12378F12B01D1E468F9E77A
:1017500034B12846FFF7E9FF29462046FFF7C8FFC6
:1017600038BD000008B50146012343700148FFF76A
:10177000BFFF08BD2000002010B5204BDC6A002C04
:101780003BD0E369013BE361BBBB0EE0432B02D1DD
:101790002046FFF7F0FE2046FFF7C7FF2046FFF781
:1017A000E1FF246924B3E36913BB6378732B17D07B
:1017B00007D8532B0DD0632BE8D12046FFF7DBFE73
:1017C000E9E7832B10D0932BE5D12046FFF7D3FE1A
:1017D000E1E72046FFF7CFFE2146FFF72BFDDAE7D2
:1017E0002046FFF7C8FED6E72046FFF7C4FED2E743
:1017F0000CB100236361014BDC6210BD04000020CA
:10180000826B90F8223013F0100F02D16020104448
:1018100070472020FBE7000008B5074B596951B11C
:101820008A6B0B6B9A4203D91A68044B9A4202D016
:10183000012000F0C7FB08BD04000020A52E5AE2DD
:1018400008B502234370024B9861FFF7E5FF08BD1E
:101850000400002038B5164B1A7A5D6960B1044661
:10186000022A05D190F9202095F920309A4218DCFF
:101870002046FFF777FF38BD5C6A022AFBD1002CB7
:10188000F9D094F9202095F920309A42F3DD2046D2
:10189000FFF74BFF2846FFF7CFFE2046FFF7D0FFAC
:1018A000E9E72846FFF7C8FE2046FFF7C9FFE2E751
:1018B0000400002070B504460E461546FFF7A0FF51
:1018C00006602046FFF790FE1DB12046FFF7C2FFDD
:1018D00070BD2046FFF746FFFAE74378332B00D070
:1018E000704710B5044690F82320416AFFF706FEC2
:1018F000014600B910BD00222046FFF7DBFFF9E7E3
:101900002DE9F04F83B0009110B38046002A3CD0FF
:10191000D2F800A0D2F804B09468166955699769A6
:101920001CB314F0030F19D1D368432B16D91EB181
:1019300016F0070F22D10DB3002F6BD07B1E372B73
:1019400029D96FF00B01002000F08CFB0024D8E0B7
:101950006FF0030100F086FB0024D2E06FF0080175
:10196000002000F07FFB0024CBE0D368002BDED00A
:101970006FF00801002000F075FBC2E06FF00A0173
:10198000002000F06FFB0024BBE092461646144690
:1019900018270025AB4625B115F0070F3CD1472D80
:1019A0003AD9002C3FD04FF000090CB1002E4FD097
:1019B000002C00F0AA80F12323700123637084F8C7
:1019C000029084F803B0C4F804A00023A360E3608D
:1019D00023616361A361E3617FB284F8207084F8BE
:1019E0002170FD2284F8222084F823306362A362F0
:1019F000E362266365637319403BA363C4F83C80CC
:101A0000454B3360454B1B6813F0040F60D0AD08A5
:101A1000113D5BE01827BEE76FF00A01002000F0DF
:101A200021FB00246DE03E4BD3F8880028B1FEF77F
:101A30007EFF04464FF00109B7E701224421384BED
:101A4000D3F88000FEF7EFFE04464FF00109ACE743
:101A5000A5B9324B5D6D324BD3F8840030B1FEF73F
:101A600066FF064688B149F010090EE000222946BB
:101A70002B4B586FFEF7D7FE064606E0002229469C
:101A8000274B586FFEF7CFFE064616B149F0020904
:101A90008EE719F0010F12D0214BD3F88830019353
:101AA0002BB121461846FEF760FF3446EEE721468B
:101AB0001B4BD3F88000FEF7F1FE019CE6E73446AD
:101AC000E4E74FF0CC3346F8043F013D002DF8D158
:101AD000A16B002303E0002241F8232001330D2BEA
:101AE000F9D1104B4B63C1F838804FF08073CB6352
:101AF000009B0B620A4B0C4A1A6614B12046FFF792
:101B0000A9FE204603B0BDE8F08F6FF0040100206D
:101B100000F0A8FAF1E700BFA52E5AE2188A0008E3
:101B200004000020D5160008DB1800080C4B1B7AB7
:101B3000022B11D10A4B5B6A83B110B5084C636963
:101B400058701846FFF71EFD04F11C00FFF7E4FD76
:101B5000FFF776FE012010BD00207047002070477F
:101B60000400002038B5194B1B7A022B28D1174BE3
:101B70005B6A2BB3154B5C69E06AFFF737FBA06922
:101B800018B100221146FFF795FEEFF30983A36316
:101B90000F4D2846FFF7C0FDFFF752FE002345F822
:101BA000083CE37813F0010F0BD00423637000238B
:101BB000E360064B5B6BA36003B1DC60034B5C63CB
:101BC00038BD2046FFF758FDFAE700BF04000020AB
:101BD0002000002010B50C4CA26D00210B48FFF72F
:101BE0008FFE0B4B9862636E0BB9012010BDE26D46
:101BF00000210848FFF784FE054B986408B10120D6
:101C0000F4E70020F2E700BF188A0008BD1F0008B3
:101C100004000020291D000808B5EFF305836BB907
:101C2000EFF3108323B9EFF3118313B1012300E025
:101C300001231BB9DFF814C000DF08BD6FF00501F8
:101C4000002000F00FFA0020F7E700BF011900089C
:101C500008B5EFF305834BB9EFF3108323B9EFF326
:101C6000118313B1012300E0012313B1FFF7FEFC40
:101C700008BDDFF808C000DFFAE700BF6D160008F6
:101C800010B40D4B5B6C002433B11A698A4203D83F
:101C9000891A1C46DB68F7E701618460C3601BB1E9
:101CA0001A69511A196198601CB1E0605DF8044B23
:101CB0007047014B5864F9E704000020C3680BB17A
:101CC00082689A60C268014B5A6470470400002021
:101CD00010B5144B5C6C24B32369013B23610AE00B
:101CE0002146032000F06EF9E378012B14D0012384
:101CF00063700C4B5C6CA4B1236993B92046FFF769
:101D0000DDFF00231A4604F118010648C06CFFF7F6
:101D1000CDF80028E8D0E3E761692046FFF7B0FF7F
:101D2000E7E710BD0400002000B583B00C4B1A6E2D
:101D30000821586EFFF79EF80A4BD8640A4A1A65C4
:101D400002E00198009B98474FF0FF33002269465C
:101D50000448C06CFFF7F0F80028F5D1F1E700BFA8
:101D6000188A000804000020D11C000808B5094AA0
:101D7000094B1A60094B9B1A094A1360094A0A4B1E
:101D80001A600A4B9B1A0A4A136000F069F800F0C7
:101D90008DF800BF880200105C1200208806001039
:101DA00058120020502900209C140020008001209F
:101DB0009814002038B50D480D4B03600B25456085
:101DC0001C24C4600B4B8360FFF758FA0A4B186061
:101DD0000A480B4B03604560C4600A4B8360FFF701
:101DE0004DFA094B186005F057FE38BD2812002047
:101DF000E48A00083C12002038120020F81100206C
:101E0000F48A00080C1200200812002008B5FEF722
:101E100015FA08BD08B54FF0FF31024B1868FFF7FF
:101E200049FA08BD3812002008B5024B1868FFF7C0
:101E30005DFA08BD38120020084B9868002306E0C0
:101E40009A0002F1805250F8231011600133612B87
:101E5000F6DD024B4FF080529A60704700ED00E0D3
:101E600008B54FF0E022936843F00203936000F05E
:101E7000A3FDFFF7E1FF04F0FFFD05F061FA00F0BC
:101E800011F808BD7047704708B500F045F8FFF736
:101E9000F9FFFFF78FFFFFF7F6FF01F03BFBFFF7BE
:101EA000B5FF08BD08B5FEF72DFC08BD00B583B031
:101EB000114A124B13614FF4805353614423D36092
:101EC0000F4B9360182393610E4B136000210E4853
:101ED000FFF7A2FE40B1FEF733FC0022009213464A
:101EE0000A490B4801F054FB00230093024A0949B8
:101EF000074801F04DFB00BF082500200815002011
:101F000060120020108B0008891E0008348B000826
:101F10001D010180188B000810B584B0054B6C467C
:101F20000FCB84E80F002046FFF7A8F9024B18609A
:101F300004B010BD4C8B00080015002008B5024B02
:101F40001B6803B1984708BDA4120020063005287D
:101F50000ED8DFE800F00B0907050F0306487047AD
:101F6000064870470648704706487047064870475D
:101F70000648704706487047F48B0008988B0008A5
:101F8000B08B0008C08B0008D88B00085C8B000861
:101F9000648B000870B582B005460E46144601F009
:101FA000F1FA08B102B070BD3046FFF7CFFF01462D
:101FB000002300932A46204601F0EAFA08B500F013
:101FC000EDF8000000B583B00246431E042B22D872
:101FD000DFE803F003090F151B00002300931149EC
:101FE000114801F0D5FA002300931049104801F080
:101FF000CFFA002300930F490F4801F0C9FA0023DC
:1020000000930E490E4801F0C3FA002300930D49D6
:102010000D4801F0BDFA002300930C490C4801F073
:10202000B7FA00BF0C8C000825010280308C000834
:1020300026010280588C000827010280908C00083D
:1020400028010280CC8C00082A0102800C8D000837
:102050000001028008B50146014AFFF79BFF08BD59
:102060003101018008B5024AFFF794FF08BD00BFA7
:102070003201018008B5024AFFF78CFF08BD00BF9E
:102080003301018008B5024AFFF784FF08BD00BF95
:102090003801018008B5FFF7DBFDFFF74FFF08BDF2
:1020A000024B987A003818BF0120704704000020C6
:1020B00008B5FEF761FB0022064901F05FFB10F155
:1020C000030F02D8FEF772FB08BD8B2202490348BA
:1020D00000F0B0FFA1200008288D0008608D0008E6
:1020E00010B5B0F57A7F22D10C4600F0DFFC002855
:1020F00022DB00F1604303F56143F02283F8002303
:10210000134A916800F1100341F82340926852F895
:102110002330A34217D1002807DB00F01F0240093B
:10212000012393400B4A42F82030002010BD322298
:1021300009490A4800F07EFF00F00F02084B1344E3
:10214000F0221A76DCE73F220349064800F072FFCE
:1021500000ED00E000E100E0288D0008908D00080F
:10216000FCEC00E0A08D000808B501F081FA00F059
:10217000FDFD08BD08B5024B186800F02DFE08BD36
:102180000814002008B5024B186800F0E1FD08BDF6
:102190000814002008B500F089FC08BD08B5024B02
:1021A0001B689847FBE700BFA800002008B503683C
:1021B0001B6901220021984708BD08B503681B6907
:1021C00000221146984708BD6FF0150070470000C7
:1021D00030B484B00023029303931A4607E0114DF4
:1021E0005B0028BF6B40013C002CF8D101329142CA
:1021F00004D9845C83EA04630824F5E79DF80C2085
:102200004AB19DF80D200AB993FAA3F302985840F9
:1022100004B030BC70479DF80D20002AF6D093FA28
:10222000A3F3F3E7B71DC10408B503681B6898471B
:1022300008BD000010B504460846074B2360002285
:102240000023C4E90223002323616361A1610349E0
:1022500000F0FCFA204610BDD88D000829220008A5
:1022600000B583B0009000F10801806900F030FBF8
:1022700003B05DF804FB08B500F10801806900F0C7
:102280005BFB08BD0020704709B1002070476FF06C
:1022900018007047012070476FF0150070476FF00D
:1022A0001500704784B001A880E80E0004B07047A4
:1022B000EFF3108313F0010F0CBF012000207047D3
:1022C00008B5FFF7F5FF72B6044B1B7823B9044B32
:1022D0001870024B01221A7008BD00BFA91200201D
:1022E000A812002008B5FFF7E3FF38B9064B00221B
:1022F0001A70064B1B7803B162B608BD362204493A
:10230000044800F097FE00BFA9120020A812002088
:10231000DC8D0008108E000870B504460D46164688
:1023200004F0FCF8B5F1FF3F0BD05EB1A368226862
:102330001A600121204604F01BF90021204604F018
:1023400011F970BDE36822681A60F2E708B500224F
:10235000FFF7E2FF08BD0000004870472C8E000820
:1023600008B5034B1B680BB10248984708BD00BF76
:10237000AC0000202C8E0008884205D0B0F1FF3F51
:102380000CD0B1F1FF3F00D1704700B583B00023FE
:10239000009302460249034801F0FAF80846F3E7C1
:1023A000588E000830010180B1F90030B3F1FF3FD1
:1023B00005D0834201D00C31F6E7486870474FF0F2
:1023C000FF307047B0F1FF3F10D010B582B0044627
:1023D000FFF7EAFFB0F1FF3F01D002B010BD0023CC
:1023E000009322460349044801F0D2F84FF0FF3031
:1023F000704700BF6C8E000830010180B1F90030D9
:10240000B3F1FF3F05D0834201D00C31F6E7886875
:1024100070474FF0FF307047436819607047000005
:102420002DE9F84F446894F83A30002B72D10546F4
:1024300003685B6898476B681B6A83426AD0236AAB
:10244000C31AE26803EA020C634600222062A56810
:1024500055498D4257D094F83BE0BEF1000F5BD058
:102460004FEA4C114FEADC60B1EB0C0160EB02006B
:10247000460246EAD1564F02304617EB0C0142EBBA
:102480000000870147EA91678E01711A67EB00002F
:1024900011EB0C0142EB0000CEF12006AEF1200260
:1024A00021FA0EF300FA06F6334320FA02F2134340
:1024B00020FA0EF2AEF1200ACEF1200C02FA0EF64E
:1024C00003FA0AFA46EA0A0623FA0CFC46EA0C0664
:1024D00003FA0EF7C91B60EB0600A66AE76A11EB68
:1024E000060840EB0709C4E90A890026B14508BF80
:1024F000A84508D3013342F10002B8EB050069EBAF
:102500000601A062E162206B616BC01842EB010121
:1025100020636163BDE8F88F4FEA4C1A4FEADC6B29
:10252000BAEB0C0A6BEB020B4FEA4B2141EADA5192
:102530004FEA4A2010EB0C0A41EB020B4FEA8B10DA
:1025400040EA9A604FEA8A11B1EB0A0A60EB0B0B82
:102550001AEB0C0A4BEB020B4FF000092A464B46D4
:102560005046594606F0A2F803460A46A5FB00016C
:1025700005FB0211BAEB000A6BEB010BA16AE06AE2
:102580001AEB01064BEB0007C4E90A674F4508BF89
:10259000AE42B8D3013342F10002701B67EB090170
:1025A000A062E162AFE700BF40420F002DE9F843AF
:1025B0004468216B606B561A63EB00072569D4E908
:1025C0000623BB4208BFB24226D3A3681F4A9342E8
:1025D0001FD094F83B202AB3A2F1200CC2F12003B3
:1025E00007FA02F106FA0CFC41EA0C0126FA03F3A1
:1025F000194306FA02F0164E144A002380194FF0D0
:10260000000646EB010106F051F8854204D3054669
:1026100002E0B54200D33546206A2844E3681840FA
:10262000BDE8F883A3FB068903FB07990848074A1E
:10263000002318EB00004FF0000149EB010106F008
:1026400035F88542E8D30546E6E700BF40420F0073
:102650003F420F00824209D98A4203D9884203D9F6
:10266000012070470120704700207047884203D93D
:102670008A4203D90020704700207047012070472C
:1026800070B5456895F83A301BB9044695F839306D
:1026900003B170BDFFF7C4FE626853684BB3D2E963
:1026A0000C01D3E90023994208BF904217D220467B
:1026B000FFF77CFF06462B6A834214D023681B6910
:1026C000984723685B68984701463246286AFFF7B7
:1026D000C1FF0028DDD023685B699847D9E72368EC
:1026E0005B699847D5E740F21B120649064800F09F
:1026F000A1FC286A2B691844EA6823681B6910400A
:102700009847C6E78C8E0008B48E0008436893F89B
:102710003820002A40F091802DE9F04F85B0054621
:1027200093F83A30002B7ED103681B6898472B68DA
:10273000DB699847066846B11F246CB10123A340AA
:10274000B34209D0013CE4B2F7E7002200921346FD
:102750003A493B4800F01CFFD0F804A0AAF104035A
:102760001C2B63D807279F407A01FB0ED21B63F115
:102770000003590241EAD2515002C21941F100034B
:10278000990141EA92619001B0EB020861EB030903
:1027900018EB070849F1000918EB060849F1000990
:1027A0003246002318F1FF3049F1FF3105F07EFF7A
:1027B000814603916B684FF00008C3F800806B6896
:1027C000C3F804802B685B68D5F804B09847CBF851
:1027D00020006B6800200021C3E90A016B689E603D
:1027E0006B6883F83B40012404FA0AFA6A680AF12C
:1027F000FF33D3606B681F616B68C3F81890039A4E
:10280000DA616B68C3E90C016B6883F839806B6827
:1028100083F83A806B6883F838402846FFF700FE5B
:102820002846FFF72DFF05B0BDE8F08F002200928B
:1028300013460449044800F0ABFE7047D88E0008E8
:102840000E010480F48E00080501048038B50446AA
:102850000D46FFF75BFF00F099FC29462046FFF785
:10286000DBFD00F0ABFC38BD70B5044600F08EFC1B
:102870002368DB689847636893F83A20DAB9012245
:1028800083F8392063685B68C3B12046FFF7C8FD51
:1028900065686E68D6E90023D5E90C01994208BF46
:1028A00090420BD3F3686B6063681B68002BE9D020
:1028B000B0689847E6E700F081FC08E06368002212
:1028C00083F839202046FFF7DBFE00F077FC70BD6F
:1028D0002DE9D84281460C4616461F4600F056FCAC
:1028E0004846FFF79DFDC4E90067069BA360D9F841
:1028F00004305B68002243B1D3E900018F4208BF76
:10290000864202D31A46DB68F5E7E36082B1D46001
:102910003AB1D9F80430D3E90C23BB4208BFB24224
:1029200002D34846FFF7ACFE00F048FCBDE8D88271
:10293000D9F804305C60EBE738B505460C4600F08A
:1029400025FC6A685368A34205D063B1DA68A242E5
:1029500007D01346F9E7E36853602846FFF790FE77
:1029600001E0E268DA6000F029FC38BD38B50446C1
:10297000FFF7CCFE00F00AFC2046FFF751FD63682C
:10298000D3E90C4500F01AFC2046294638BD08B5AD
:10299000FFF7ECFF08BD704700487047308F000814
:1029A00008B5034B1B680BB10248984708BD00BF30
:1029B000B0000020308F000808B5BFF35F8F184BC0
:1029C0001868030AC0F3072013F0FC0F03D000239C
:1029D000134A536009E03B221249134800F02AFBD6
:1029E0000F4A93600021116101338342F8D30C4BED
:1029F0001022DA600D4A1A611322DA600C4A1A6159
:102A00001122DA600B4A1A610B4ADA600B4A1A612A
:102A100007225A60BFF34F8FBFF36F8F08BD00BF0F
:102A200090ED00E05C8F0008888F000839F0020606
:102A3000390702133FF50B1312000080390002130F
:102A400008B5B1F90C20B1F9041004F097FB08BDEA
:102A500010B5044600F09AFB204610BD10B50446A0
:102A600000F0ACFB204610BD10B50446FFF7E2FBBA
:102A70000D4B2360A069FFF779FF20626162A062BD
:102A8000E16200220023C4E90C230023A36384F83D
:102A90003C3084F83D3084F83E3084F83F3084F890
:102AA0004030204610BD00BFF48F00084FF0FF30CB
:102AB0007047000010B590F83F305BB90446FFF74F
:102AC000DAFB002384F83C3084F83D3094F8403041
:102AD0002BB910BD8E220549054800F0ABFA002342
:102AE00084F8403000F088FEF3E700BF988F0008BC
:102AF000C08F000810B5044601F1300000F0A6FABE
:102B0000C4E90001204610BD036B426B013342F162
:102B1000000203634263836AC26A13F57A7342F167
:102B200000028362C262704708B5826AC36A12F506
:102B30007A7243F10003FFF793FB08BDF8B5054631
:102B40000C468869FFF712FFA36AE26AC61A61EBB6
:102B50000207002F08BFB6F57A7F05D200220023B6
:102B6000C5E900232846F8BD002F08BFB6F5FA6F67
:102B700004D201220023C5E90023F3E7002E77F1F8
:102B8000010309DA4FF47A7200233046002105F080
:102B90008DFDC5E90001E5E74FF47A720023304668
:102BA000394605F083FDC5E90001DBE7F0B583B0E8
:102BB00091F83F30002B34D105460C4691F83C305B
:102BC000002B2ED16846FFF7B9FF0099019800232A
:102BD000A36346014B0146EAD1625B1A62EB000235
:102BE000960046EA93769F0032467B1840EB02023D
:102BF000D60046EA5376DF003B463246A76AE66ACD
:102C0000DB1946EB0202A362E262236B626BC91816
:102C100042EB00002163606329606860284603B0CE
:102C2000F0BDE5220149024800F004FA988F00083F
:102C3000CC8F00082DE9F04383B01F4690F83F3059
:102C40003BB90446164690F83C303BB103B0BDE8B2
:102C5000F08358223849394800F0ECF901466846BB
:102C6000FFF7A4FFDDE90023BB4208BFB24203D354
:102C7000012384F83D30E9E721466846FFF73AFF33
:102C8000009BB6EB0308019B67EB0309226A636AAA
:102C90007D01710145EAD660891B60EB0700850064
:102CA00045EA91754FEA810C28461CEB060147EB7B
:102CB0000000C50045EA5175CE002846951943EB42
:102CC0000006012384F83C30002384F83D3094F85A
:102CD000403023B9A3691B6893F82030A3B1B9F140
:102CE000000F08BFB8F1050F02D394F840308BB144
:102CF000002384F83E3094F84030B3B12A4633467E
:102D00002046FFF7ADFAA1E7012384F8403000F038
:102D100057FDE4E7012384F83E30B5F57A6246F1C9
:102D2000FF332046FFF79CFA90E7012384F84030F8
:102D300000F046FDE2E700BF988F0008C08F000852
:102D4000024B4FF080625A60704700BF00ED00E018
:102D500008B5383050E8003F013B40E80032002A17
:102D6000F8D103B908BDFFF7EBFFFBE710B5044648
:102D7000012380F83F30836B1BB92046FFF7D4FE58
:102D800010BDFFF7DDFFF8E710B5044690F83C30C2
:102D90004BB1002380F83C3090F83E3033B901232A
:102DA00080F83D3002E090F83F3003B910BD836BEE
:102DB00001338363FFF7C4FF2046FFF7A5FE2046DB
:102DC000FFF7B2FEF2E70000024B4FF000725A60CC
:102DD000704700BF00ED00E010B50446FFF74BFA66
:102DE000002384F83F30FFF7EFFF10BD102300F001
:102DF00007B8202300F004B8302300F001B84023C6
:102E00009C46F0B404AE7546E80801D3EFF309869A
:102E10000E4F0FCE0FC70FBC0FC740464946524654
:102E20005B460FC71DCE3100A60A00D304316E09E0
:102E300000D248311FC7EFF309806946EFF31486CB
:102E400063C76046014900F08DF800BF880100109B
:102E500070B584B0002407E0344B53F82420214699
:102E6000334800F077F901340C2CF5DD2F498B6CD9
:102E700002934B6C01930B6C0093CB6B8A6B496B89
:102E80002C4800F067F92C4C21682C4800F062F9BE
:102E9000E16AA26AA36AA06A000C256BE66B02963F
:102EA00001950090C3F30723D2B2254800F052F9F0
:102EB000A36A13F0800F15D11F4B9B6A13F4004FC8
:102EC00015D11A4BDB6C13F0080F1AD01D4800F017
:102ED00041F9164B1B6D13F0010F0ED01A4800F08C
:102EE00039F914E0616B194800F034F9E4E7124B4A
:102EF000996B174800F02EF9E3E7164800F02AF91D
:102F000005E0154800F026F9124800F023F9074BB8
:102F1000DB6C13F0040F04D0104800F01BF904B070
:102F200070BD0F4800F016F9F9E700BF88010010E6
:102F3000F88F00080890000800ED00E058900008A5
:102F400068900008D8900008E8900008B890000841
:102F5000C8900008F89000080C9100081C91000827
:102F60002891000800B583B005460C461B4B012193
:102F7000D3E84F2FC3E8401FD2B23AB10025002357
:102F8000009322461649284600F002FB154800F03F
:102F9000E1F8302D18D0402D1BD0202D04D0124840
:102FA00000F0D8F8114D03E0114800F0D3F8114DAE
:102FB000114800F0CFF8FFF74BFF104800F0CAF8B7
:102FC000064B00221A70DAE70D4800F0C3F80D4DE9
:102FD000EEE70D4800F0BEF80C4DE9E7482500206B
:102FE000C091000834910008889100083D01FF80DD
:102FF000609100083E01FF8094910008A0910008B4
:10300000709100083F01FF807C9100084001FF8023
:1030100008B504F0EFFD08BD08B57246FFF7F8FFEC
:1030200008BD08B504F0FAFB08BD08B57246FFF705
:10303000F8FF08BD00B583B00B46009200220146A0
:10304000014800F0A5FA00BF4401FF8038B50446EE
:1030500000F09CF8D4E9004500F0B0F8204629467D
:1030600038BD000000B589B000F090F8052101A836
:10307000FFF76CF921E0039B019A1A60104D284676
:1030800000F0FCFE049B019A1A60284600F0F6FE50
:103090000134032CEFDD00240DE0039B019A1A603C
:1030A000084D284600F0EAFE049B019A1A60284663
:1030B00000F0E4FE0134032CEFDD0024E9E700BF5B
:1030C000F0490200801A060010B582B004460022C2
:1030D0000146022000F010FD00F058F800220FE039
:1030E0000D238DF8073001220DF10701022000F0B9
:1030F00003FD01222146022000F0FEFC14F8012B02
:10310000237823B10A2BF4D10D2AF2D0E8E700F09E
:1031100055F802B010BD000000B5A3B002460B4642
:10312000842101A801F04AF90346832806D9084AF8
:103130001068CDF8830012798DF88720002B02DC0F
:1031400023B05DF804FB01A8FFF7BEFFF8E700BF5E
:10315000D09100080FB400B583B004A951F8040B56
:103160000191FFF7D9FF03B05DF804EB04B070479D
:10317000EFF3108313F0010F0CBF01200020704704
:10318000EFF30580003818BF0120704708B5FFF73E
:1031900097F8074B1B68B3F1FF3F03D00133044A94
:1031A000136008BD3F2203490348FFF743FF00BFF8
:1031B00030130020D89100080492000808B5054B90
:1031C0001B681BB1013B034A136003B108BDFFF745
:1031D00089F8FBE7301300200146D8B102680F4B95
:1031E0001344012B09D90E4B9A4211D0033B9A424A
:1031F00001D0002302E0012300E00123184663B15F
:103200008B684BB1DB6C13F0080F06D000207047C1
:103210000123F3E70020704700207047C2FE007FC3
:103220004001FF802DE9F04184B004460F46164668
:1032300098460168C1F34173032B16D08DB2C1F3D8
:1032400007432A463E48FFF785FFA5F23115132DA7
:1032500011D8DFE805F00C474C5156605B65101043
:103260001010101010101010106A4D42E7E7A168FE
:103270003448FFF76FFF3846FFF726FF6168324892
:10328000FFF768FF4EB13148FFF71EFF3046FFF7EA
:103290001BFF41462E48FFF75DFFA1682D48FFF751
:1032A00059FF2046FFF798FFE368002B41D059688B
:1032B000002940D0002840D0274AE0690390A06947
:1032C000029060690190206900902448FFF742FF56
:1032D00021682348FFF73EFF2248FFF73BFF04B079
:1032E000BDE8F081A1682048FFF734FFC3E7A1687B
:1032F0001E48FFF72FFFBEE7A1681D48FFF72AFF12
:10330000B9E7A1681B48FFF725FFB4E7A1681A4891
:10331000FFF720FFAFE7A1681848FFF71BFFAAE7F8
:10332000A1681748FFF716FFA5E71648FFF712FF39
:10333000A1E71549BEE71449BCE7144ABDE700BF41
:1033400050920008A4920008549300086893000863
:103350007093000874930008449200088893000852
:10336000E493000834940008BC920008CC92000852
:10337000DC920008F09200080493000818930008FB
:10338000289300084093000838920008D491000860
:1033900008B50D4B0121D3E84F2FC3E8401FD2B22F
:1033A0000028F6D12AB1FFF7F1FEBFF34F8F20BFFF
:1033B000FDE7FFF7E5FE10B9FFF7DAFE08B9FFF702
:1033C00051FE012000F026FD7C1300207047000014
:1033D00030B591B00D46041E00DB2E4C3C2200217E
:1033E00001A804F05BFF009402952B4B2344012BB2
:1033F00009D92A4B9C4235D0033B9C4201D0002383
:1034000002E0012300E00123002B2DD0EB6B0193A0
:103410006B6B0793224B5B690393DA6B04925A6BD5
:1034200005921B6B0693FFF7B1FE1E4A136801332A
:103430001360012B1DD01C4C6D460FCD0FC40FCD5A
:103440000FC40FCD0FC495E80F0084E80F00174B91
:103450001B68DBB1A4F130009847FFF7AFFE0020F6
:1034600011B030BD0123CFE7149B0193CDF81CD0E0
:10347000D0E70F4C6D460FCD0FC40FCD0FC40FCD4D
:103480000FC495E80F0084E80F00D4E70648FFF763
:103490009DFFE2E70101FF80C2FE007F4001FF8047
:1034A0000400002034130020801300203813002073
:1034B0003C1300200FB400B585B0104B0121D3E8B8
:1034C0004F2FC3E8401FD2B20AB1FFF761FFCDF81A
:1034D00000E000231A4619460948FFF779FF002348
:1034E0001A4608490848FFF79DFE07A90391069868
:1034F000FFF712FE0548FFF7E7FDE6E74825002045
:103500000001FF805094000880130020EC95000813
:1035100070470000184BD3F88030002B01DB0020EF
:10352000704710B5154C3C212046FEF751FEE36B69
:10353000834201D0002010BDA4F18003D3F8B8303D
:10354000002BF7D10E4B01221A702046FFF7E0FF47
:10355000636B002BEEDD803C0123C4F8B8303C21C6
:1035600004F18000FEF734FEC4F8BC00D4F8B43097
:10357000002BDFDDFFF70CFF8801001008020010B0
:103580007D130020014B1878C0B2704748250020F9
:1035900080B582B01F462E4C0126D4E84F5FC4E8A8
:1035A000436FEDB2002D37D02A4C3C212046FEF768
:1035B0000FFEE36B83423ED0274B01225A63264C19
:1035C0000023A3633C212046FEF702FEE063FFF7E1
:1035D000DDFD224E06F180050FCC0FC50FCC0FC5C7
:1035E0000FCC0FC594E80F0085E80F00FFF7E6FD4C
:1035F0001B48FFF7AFFDD6F8B410002923DCBFF35A
:103600004F8F1849CA6802F4E062174B1343CB602E
:10361000BFF34F8F00BFFDE788461146CDF800E0AD
:10362000049B3A46FFF7D4FE049B3A4641460A48BB
:10363000FFF7F8FDB8E7A4F18003D3F8B430013305
:10364000054A5363BBE70948FFF784FDD7E700BF8E
:103650004825002008020010801300208801001077
:103660006894000800ED00E00400FA059C9400084E
:10367000094B1B6813B1084B1868704710B5FEF76B
:103680006BFE0146054C2046FFF7EEF9024B1C602D
:10369000014B186810BD00BF08140020C0130020A3
:1036A00010B582B00446A3681BB1E06898470028B3
:1036B00040D1214B1B6893F83D30002B3AD1D4E91F
:1036C00000014FF0FF326FF00043994208BF904273
:1036D00023D101A8FFF7BCF9A36813B1E0689847AC
:1036E00028BB154B1B6893F83D3003BBD4E90001A0
:1036F0004FF0FF326FF00043994206BF9042012322
:10370000002303D00C4B1B6893F83C3063B901A82D
:10371000FFF7A4F9BFF36F8FC5E702460B460649D2
:103720000868FFF787FAD4E700F084F8EFE701A80C
:10373000FFF794F902B010BD0814002030B587B02F
:103740000446CDE902230A9B04930B9B0593FFF7E4
:103750008FFF02A8FFF7A4FF074D2868FFF7AAF91B
:1037600029686846FFF722FADDE90023C4E900234F
:10377000204607B030BD00BF081400202DE9F041FD
:1037800084B006460F4690460C4D296802A8FFF704
:10379000B1F9DDE902012B689B6BC41A61EBE3759B
:1037A000CDF804800097A21945F1000302A8FFF7A5
:1037B000C5FF0298001B04B0BDE8F081081400208A
:1037C0000A4BD3E85F2F0132C3E8512F0029F7D10C
:1037D00092B202B1704700B583B000230093034A50
:1037E000128803490348FFF7D3FE00BF0C140020E2
:1037F000E8940008230104800B4BD3E85F2F013AC3
:10380000C3E8512F0029F7D192B24FF6FF739A42C5
:1038100000D0704700B583B000230093024A12889D
:1038200002490348FFF7B4FE0C1400200C95000871
:103830002401048008B5FFF7A9FC03F0EDFCFFF7B5
:10384000BDFC08BD6FF01C0070476FF0150070479D
:1038500001207047002070477047000070B50E4689
:1038600015460024AC4205D2315D034802F002FD4A
:103870000134F7E7284670BD842800200AB90020EB
:10388000704710B50C46034802F094FC20700120EC
:1038900010BD00BF8428002038B58DB211F0010F93
:1038A00005D1002415F0100F09D1204638BD084875
:1038B00003F0BEFA08B90024F4E70124F2E7044853
:1038C00003F0CAFA0028F0D044F01004EDE700BF7E
:1038D0008428002070B50446084B0360084B1B6821
:1038E0000BB1204670BD1546064E3046FFF7A8F8CE
:1038F0002946304603F00AFBF3E700BF389600087C
:10390000C814002084280020002070470020704741
:1039100008B5012000F07EFA08B503460B4A10688E
:103920001A180B49814203D3914201D209481A184F
:10393000094B934202D3054B1A6008BD03F044FDC6
:103940000C2303604FF0FF30F7E700BFB401002005
:1039500000800010502900200080012001207047C5
:103960000120704708B5FEF755FA08BD08B5FEF707
:103970005BFA08BD037803F00303012B20D010B5D8
:103980000446104B186818B14FF0FF31FDF792FC58
:10399000237803F00302012A05D05AB943F0020349
:1039A0002370012010BD074B186808B1FDF79EFC7D
:1039B0000020F7E740F29A6203490448FFF73AFB18
:1039C00000207047001500202C9500085C95000829
:1039D00008B5037803F00302022A0CD123F0030395
:1039E0005BB243F00103DBB20370064B186808B109
:1039F000FDF77CFC08BD40F2A36203490348FFF7D2
:103A000019FB00BF001500202C9500087C950008CC
:103A10000F4B1B78BFF35B8F13F0010F01D00D48E4
:103A2000704710B50A48FFF7A5FF08B9094810BD4F
:103A3000084C4FF4165208492046FFF74BFF044844
:103A4000FFF7C6FF054A06492046FFF787FFEDE767
:103A5000101400209414002080960008000000201C
:103A60005938000810B50446FFF750FF00B110BDEB
:103A70002046FFF749FF0028F9D1FFF7C9FFF6E715
:103A80003F2811DC10B50446084B53F82000B0F174
:103A9000FF3F00D010BD022CFCDC2046FFF7E2FF08
:103AA000024B43F82400F5E700207047B4000020E3
:103AB00010B50446FFF7E4FF0C4B002243F8242026
:103AC00030B1026852699047041E08DB002010BD27
:103AD00003F07AFC092303604FF0FF30F7E703F0AF
:103AE00073FC644204604FF0FF30F0E7B400002044
:103AF00008B5FFF7DDFF08BD70B50C461546FFF7AA
:103B0000BFFF40B10268D6682A462146B047041E6E
:103B100008DB204670BD03F057FC092303604FF01B
:103B2000FF34F6E703F050FC644204604FF0FF34CA
:103B3000EFE770B50C461546FFF7A2FF40B10268EB
:103B400096682A462146B047041E08DB204670BD11
:103B500003F03AFC092303604FF0FF34F6E703F06B
:103B600033FC644204604FF0FF34EFE710B5FFF719
:103B700087FF30B10268D2699047041E07DB2046F8
:103B800010BD03F021FC092303600024F7E703F0D4
:103B90001BFC644204600024F1E708B5FFF7E6FF70
:103BA000003818BF012008BD2DE9F04F83B08246D0
:103BB0000D469346FFF7E4FA88B9FFF7D9FA70B1DA
:103BC000D946BBF1000F11DB5046FFF7E6FF002896
:103BD0003BD0304B13F80A700024A0461BE00023B2
:103BE000009352462C492D48FFF7D2FC03F0ECFB22
:103BF000162303604FF0FF382BE00122284950467E
:103C0000FFF77AFF00283FDB23DD224B0D2203F86C
:103C10000A2037780134A14519DD2E192B5D0A2BB6
:103C2000F7D10D2FF5D0A045E7DAA4EB080205EB9C
:103C300008015046FFF760FF002822DB804444451E
:103C400007DC144B03F80A70D7E74FF00008C345B0
:103C500003DC404603B0BDE8F08FABEB080205EB98
:103C600008015046FFF748FF002810DB8044B8F1F8
:103C7000000FEEDD454415F8012C064B03F80A2031
:103C8000E7E74FF0FF38E4E74FF0FF38E1E74FF0A8
:103C9000FF38DEE754140020B49500082F0101809E
:103CA000F095000870B584B004460E461546FFF73F
:103CB00067FA30BBFFF75CFA18B3002D28DB20460B
:103CC000FFF76BFF002842D001220DF10F012046C3
:103CD000FFF72FFF002837DB88B19DF80F300D2B41
:103CE0001DD00A2B24D00D2B27D00A2B03D11B4A21
:103CF000125D0D2A25D0194A13553370012004B0E6
:103D000070BD00230093224615491648FFF740FC7A
:103D100003F05AFB162303604FF0FF30EFE70F4A22
:103D2000125D0A2ADDD00D4A13550A233370E5E7E8
:103D30000A4A125D0D2AD6D0F5E7084A125D0A2A12
:103D4000D3D1064A1355BFE74FF0FF30D7E72A46D5
:103D500031462046FFF7EDFED1E700BF14140020E6
:103D6000F49500082F01018008B5FFF7FFFE08BD9C
:103D700070B50C461546FFF783FE40B10268166920
:103D80002A462146B047041E08DB204670BD03F0DA
:103D90001BFB092303604FF0FF34F6E703F014FB2D
:103DA000644204604FF0FF34EFE708B5FFF7E0FF2F
:103DB00008BD10B5FFF764FE30B102689269904704
:103DC000041E08DB002010BD03F0FEFA0923036087
:103DD0004FF0FF30F7E703F0F7FA644204604FF06A
:103DE000FF30F0E708B50446094D2B68986803F0EA
:103DF0001DFC2B68D86803F019FC0120FFF7D9FFE0
:103E00000220FFF7D6FF04B9FEE7FFF72BF900BF4A
:103E1000C001002008B5FFF7E5FF38B50C46FFF7F5
:103E20002FFE70B105460368DB69984780B14FF4F7
:103E3000005363602B689B6A2846984720610020E6
:103E400038BD03F0C1FA092303604FF0FF30F7E7F4
:103E50004FF40043EDE708B5FFF7DFFF08BD08B5F5
:103E600003F0C0FE08BD10B504460421FFF7F7FFBC
:103E7000204610BD08B500F0B7FA08BD70B506467B
:103E8000FEF78AFD0546FEF782FD04462846FEF74A
:103E90007EFD031BB342F9D370BD38B514461268DA
:103EA0006FF00045AA4217D2049D75B12946184605
:103EB00003F032FCB0F1FF3F03D0236801332360ED
:103EC0000AE04FF0FF33236006E010B18A4200D2CF
:103ED000835423680133236038BD2DE9F04788B04F
:103EE000054688469146DDE91067DDF848A056EAA8
:103EF00007031ED0002402940394049405940694AE
:103F0000079456EA070326D00A2200233046394692
:103F100004F0CCFB303208AB234403F8182C0A22FF
:103F200000233046394604F0C1FB06460F460134F3
:103F3000E7E7CDF800A03023FFF7AFFF0DE0013C2D
:103F400008AB2344CDF800A013F8183C4A4641467C
:103F50002846FFF7A2FF002CF1D108B0BDE8F0879A
:103F60002DE9F04385B0074688469146DDE90C45CA
:103F70000E9E002C75F100030ADB0296CDE9004588
:103F80004A4641463846FFF7A8FF05B0BDE8F08332
:103F900000962D23FFF781FF644265EB4505ECE7B2
:103FA0002DE9F04F85B0824689469046DDF838B05D
:103FB0000F9F9DF8443003930725002119E0230942
:103FC00004F00F04039A5AB3184E01B93BB1F35CE5
:103FD000109A0092424649465046FFF75EFF335D15
:103FE000109A0092424649465046FFF756FF01217B
:103FF000013D002D16DBEC00C4F12002A4F12003EA
:104000002BFA04F407FA02F2144327FA03F31C43D1
:10401000E4B20029D3D1002CD1D1002DE8D1CEE7D4
:10402000034ED2E705B0BDE8F08F00BFA8960008A8
:10403000989600082DE9F04383B080460F46164657
:104040001C460A9DDDF82C90237853B14DB1CDF874
:104050000090324639464046FFF71FFF0134013DCC
:10406000F2E703B0BDE8F0832DE9F04184B00646E5
:104070000F4690461C460A9D00953023FFF70DFF22
:1040800000957823424639463046FFF706FF012364
:1040900003930295E517CDE900454246394630467F
:1040A000FFF77EFF04B0BDE8F0812DE9F04F89B045
:1040B0000593DDF8488000230793002A00F07781FC
:1040C00007460E4614469942C0F2718119B14E1E40
:1040D0009946002524E14FF00109FAE70132A35C7B
:1040E000303BDBB2092BF9D934E1A11849782A29F0
:1040F00040F034810232059B191D0591196832E1A7
:1041000002F1010E4FF0000C61460CEB0E02A35CB5
:10411000A3F13000C0B2092800F2258101EB810132
:10412000303B03EB41010CF1010CEEE7A0184078A5
:10413000682840F01C81722307E0A01840786C28A2
:1041400040F01881822300E0112303F0030A924417
:1041500014F80AB0BBF1640F2FD0BBF1690F2CD05B
:10416000BBF1750F5AD0BBF1780F57D0BBF1580F88
:1041700054D0BBF1630F00F0A380BBF1730F00F0CC
:10418000AC80BBF1700F00F0B680CDF80080252325
:1041900007AA31463846FFF780FEBBF1250F40F0F5
:1041A000BE805546BBE02123CFE73123CDE7412335
:1041B000CBE75123C9E76123C7E7822B0ED0059ACD
:1041C000111D05911068C117212B23D010D9512B37
:1041D00022D0722B13D140B2C11710E0059A0732DA
:1041E00022F0070202F108010591D2E90001EBE794
:1041F00023B1112B03D100B2C11700E0C117CDF8D4
:104200000880CDE9000107AA31463846FFF7A8FE2D
:10421000554684E0C117F2E7C117F0E7822B0FD0B3
:10422000059A111D059110680021412B37D029D81E
:10423000112B30D0212B0DD10346184600210DE063
:10424000059A073222F0070202F108010591D2E92E
:104250000001EAE713B9034618460021BBF1750FC8
:1042600023D0BBF1580F14BF002301230393CDF8D3
:104270000880CDE9000107AA31463846FFF790FED5
:1042800055464CE0512B0ED0722BE7D100F0FF03C6
:1042900018460021E2E783B218460021DEE7034614
:1042A00018460021DAE7C117D8E7CDF80880CDE934
:1042B000000107AA31463846FFF70FFE55462EE0AB
:1042C000059B1A1D05921B78CDF8008007AA314680
:1042D0003846FFF7E2FD554621E0059B1A1D059281
:1042E0001B68CDF80480009107AA31463846FFF7D5
:1042F000A1FE554613E0059B1A1D05921B68CDF8DB
:10430000008007AA31463846FFF7AEFE554606E064
:10431000CDF8008007AA31463846FFF7BEFD0135CB
:10432000635D002B3AD0252BF2D16A1CA35C2D2BA8
:1043300007D02B2B05D0202B03D0232B01D0302BE3
:1043400000D1AA1CA35C2A2B7FF4C9AE0132059BC5
:1043500004330593A35C2E2B3FF4C7AE2E2B3FF402
:10436000CFAE6FF00041A35C682B3FF4DFAE6C2B47
:104370003FF4E3AE682B3FF4E7AE6C2B3FF413AF92
:104380006A2B3FF412AF7A2B3FF411AF742B3FF43A
:1043900010AF4C2B3FF40FAF0023D6E63FB1B9F17D
:1043A000000F04D1079BB34205D80022FA540798A6
:1043B00009B0BDE8F08F0023BB55F8E710B582B017
:1043C00000240094FFF771FE02B010BD00B583B069
:1043D000134600900A466FF000410020FFF765FE8B
:1043E00003B05DF804FB000008B5FBF7B1FF00B9AE
:1043F00008BDE12201490248FEF71CFEB8960008FC
:10440000F8960008704710B5032000F00BF80F2055
:1044100002F0E2F810B10124204610BD0446FFF777
:10442000F1FFF9E7074AD36823F4E0631B041B0C90
:10443000000200F4E060034343F0BF6343F4003341
:10444000D360704700ED00E010B404460C4B1B68CD
:104450000C4AA2FB03239A0B4FF47A7303FB02F37B
:10446000002005E02268126831EA020204D01BB184
:10447000013BF7D10320F5E75DF8044B704700BF1F
:10448000BC0100205917B7D17047000000284DD05B
:1044900070B5044690F83630002B37D0022384F8EC
:1044A00036302668F2686168012934D060694FF6B9
:1044B000FF73984201D022F4604209B922F0D80279
:1044C0001B4D1540A26841EA0203226A1343626A47
:1044D0001343A26A13432B4319B9E26925692A439E
:1044E000134301291AD04FF6FF72904202D0A269FD
:1044F00010430343F36023680E4A934211D0E26AEB
:104500001A62012384F83630002070BD80F83530FF
:10451000FFF7BAFFC2E722F00602C7E7E2681343DB
:10452000E1E7E26A216B0A431A62EAE70120704779
:10453000F8F119FF007C004010B504460B4602223A
:1045400080F836204268012A03D0826AB2F5000F53
:1045500018D021680A6942F001020A61226810211C
:104560005160226893612046FFF76EFF032808D050
:104570002268136943F004031361012384F8363081
:10458000002010BD0168CA6822F46062CA60E0E7DA
:10459000024A136843F48073136070470070004050
:1045A00010B50C46A0B90F4B5B6913F4007F0AD11C
:1045B0000D4A136923F004031361012C10D040BF8E
:1045C00020BF20BF10BD00F029F80028F0D0F9E787
:1045D000044B5B6913F4007FEAD100F017F8E7E7BA
:1045E00030BFEFE70070004000ED00E0024B1868BC
:1045F00000F4C060704700BF00700040024A53687A
:1046000043F400735360704700700040024A13681F
:1046100043F4804313607047007000400F4A1368F2
:1046200023F4804313600E4B1A68322303FB02F31A
:104630000C4AA2FB03239B0C0133084A526912F473
:10464000007F02D00BB1013BF7E7044B5B6913F429
:10465000007F01D1002070470320704700700040A8
:10466000BC01002083DE1B4330B583B00446204BE1
:104670009B6D13F0805F0BD0FFF7B8FFB0F5007FA4
:1046800017D0802C1FD82DD0702C2DD000211BE0EE
:10469000174DAB6D43F08053AB65AB6D03F08053AA
:1046A0000193019BFFF7A2FFAB6D23F08053AB6535
:1046B000E4E7802C03D9A02C03D9022104E00021D7
:1046C00002E0012100E003210A4A136823F00703F6
:1046D0000B431360136803F007038B4206D10020DD
:1046E00003B030BD0221EFE70121EDE70120F7E73C
:1046F0000010024000200240284A9368D26802F06D
:10470000030213F00C030AD00C2B06D0042B1FD08D
:10471000082B20D00020024610E0012AF6D11F4AC3
:10472000126812F0080F0CD11C4AD2F89420C2F380
:1047300003221B4951F8222043B100200C2B0DD03D
:104740007047164A1268C2F30312F2E71046F5E703
:1047500014480022F2E714480022EFE70F4BDB6811
:1047600003F00303022B16D0032B00D10E4A0B4B90
:10477000D868C0F302100130D968C1F3062102FBEA
:1047800001F2B2FBF0F2D868C0F3416001304000A2
:10479000B2FBF0F0D4E7034AE9E700BF00100240A3
:1047A000209700080024F40000127A00002800F08E
:1047B000FF82F0B583B00446AE4B9D6805F00C0552
:1047C000DE6806F00306036813F0100F5AD0E5B157
:1047D0000C2D18D0A369002B00F0BB80A54A1368EC
:1047E00043F00103136001F0FDFE0746A14B1B6877
:1047F00013F0020F40F09A8001F0F4FEC01B022873
:10480000F4D90320DFE2012EE4D19A4B1B6813F0A8
:10481000020F03D0A369002B00F0CC82206A954BD5
:104820001B6813F0080F5BD0924B1B6803F0F0037A
:1048300098425CD88F4B1A6842F008021A601A68D6
:1048400022F0F002216A0A431A605A6822F47F4279
:10485000E16942EA01225A60002D60D0FFF74CFF67
:10486000844B9B68C3F30313834AD35C03F01F0399
:10487000D840824B1860824B186801F0ADFE0028CA
:1048800040F0A182236813F0010F00F08180082D11
:1048900075D00C2D71D06368B3F5803F00F0978020
:1048A000B3F5A02F00F09980724B1A6822F4803281
:1048B0001A601A6822F480221A606368002B00F0E4
:1048C000998001F08FFE07466A4B1B6813F4003F86
:1048D0005ED101F087FEC01B6428F5D9032072E287
:1048E000644BD3F894301B0903F0F003A0E7FFF703
:1048F000BBFE002840F060825E4B1A6842F008025E
:104900001A601A6822F0F002216A0A431A605A6893
:1049100022F47F42E16942EA01225A609EE7206A5E
:10492000FFF7A2FE002899D001204CE2514B1A68F3
:1049300042F008021A601A6822F0F002216A0A4363
:104940001A605A6822F47F42E16942EA01225A6001
:1049500098E7484A136823F00103136001F042FE10
:104960000746444B1B6813F0020F8BD001F03AFE50
:10497000C01B0228F5D9032025E2032E8BD13D4B25
:104980001B6813F4003F03D06368002B00F016820D
:10499000236813F0020F4FD0042D3CD00C2D38D0DB
:1049A000E368002B77D0334A136843F480731360B5
:1049B00001F018FE06462F4B1B6813F4806F61D17F
:1049C00001F010FE801B0228F5D90320FBE1294AE3
:1049D000136843F4803313606FE703F18043A3F55A
:1049E0003C331A6842F480221A601A6842F480321A
:1049F0001A6062E701F0F6FD07461E4B1B6813F4D0
:104A0000003FC5D001F0EEFDC01B6428F5D903209E
:104A1000D9E1022EC4D1174B1B6813F4806F03D069
:104A2000E368002B00F0CC81124A536823F0F8535E
:104A3000216943EA01635360236813F0080F55D0DE
:104A40006369002B3BD00B4AD2F8943043F001034A
:104A5000C2F8943001F0C6FD0646064BD3F89430F8
:104A600013F0020F42D101F0BDFD801B0228F4D9E2
:104A70000320A8E10010024008970008BC010020B4
:104A8000B8010020B84A536823F0F853216943EA7B
:104A900001635360D0E7B44A136823F48073136052
:104AA00001F0A0FD0646B04B1B6813F4806FC3D025
:104AB00001F098FD801B0228F5D9032083E1AA4A62
:104AC000D2F8943023F00103C2F8943001F08AFD4B
:104AD0000646A54BD3F8943013F0020F06D001F030
:104AE00081FD801B0228F4D903206CE1236813F0B8
:104AF000040F7AD09C4B9B6D13F0805F36D19A4B9C
:104B00009A6D42F080529A659B6D03F08053019339
:104B1000019B0126954B1B6813F4807F28D0A36866
:104B2000012B39D0052B3FD08F4BD3F8902022F0AA
:104B30000102C3F89020D3F8902022F00402C3F8B9
:104B40009020A368002B3DD001F04CFD0746864B1A
:104B5000D3F8903013F0020F46D101F043FDC01B93
:104B600041F288339842F2D903202CE10026D1E7A4
:104B70007E4A136843F48073136001F033FD0746E7
:104B80007A4B1B6813F4807FC9D101F02BFDC01B49
:104B90000228F5D9032016E1734AD2F8903043F089
:104BA0000103C2F89030CCE76F4BD3F8902042F06D
:104BB0000402C3F89020D3F8902042F00102C3F819
:104BC0009020BEE701F00EFD0746674BD3F890300A
:104BD00013F0020F08D001F005FDC01B41F288332D
:104BE0009842F2D90320EEE06EBBA36A002B00F0DE
:104BF000E980022B2DD00C2D00F0EB805A4B1A6867
:104C000022F080721A601B6813F0205F04D1564AAC
:104C1000D36823F00303D360534AD36823F0887327
:104C200023F48033D36001F0DDFC04464E4B1B6857
:104C300013F0007F00F0BA8001F0D4FC001B0228C2
:104C4000F4D90320BFE0484A936D23F08053936565
:104C5000CBE7454BDB6803F00301E26A91420FD0DA
:104C60000C2D00F0B280404B1B6813F0806F40F0B9
:104C7000AE803D4B1B6813F0805F2DD00120A2E079
:104C800003F07002216B0139B2EB011FE8D103F48C
:104C9000FE42616BB2EB012FE2D103F40031A26B53
:104CA000073A18BF01229142DAD103F4C001E26B46
:104CB0005208013AB1EB425FD2D103F0C063226CDB
:104CC0005208013AB3EB426FCAD1274B1B6813F06D
:104CD000007F51D0002076E0234A136823F08073D0
:104CE000136001F07FFC05461F4B1B6813F0007F2B
:104CF00006D001F077FC401B0228F5D9032062E0C2
:104D0000194AD3681A491940E36A206B013843EA0B
:104D10000013606B43EA0023E06B4008013843EA6C
:104D20004053206C4008013843EA4063A06B0009FF
:104D300043EA40430B43D360136843F0807313602E
:104D4000D36843F08073D36001F04CFC0446064BFB
:104D50001B6813F0007F0DD101F044FC001B0228FA
:104D6000F5D903202FE000BF001002400070004082
:104D70008C809DF9002026E0174B1A6842F0807263
:104D80001A60DA6842F08072DA6001F02BFC0446A7
:104D9000114B1B6813F0007F06D101F023FC031BAD
:104DA000022BF5D903200EE000200CE000200AE0E1
:104DB00001207047012006E0012004E0012002E00C
:104DC000012000E0002003B0F0BD0120FBE701203E
:104DD000F9E70120F7E700BF00100240002800F0CB
:104DE000988070B50C4605464E4B1B6803F00703D0
:104DF0008B420BD24B4A136823F007030B4313601B
:104E0000136803F007038B4240F085802B6813F092
:104E1000010F39D06B68032B09D0022B26D063BB5E
:104E2000414A126812F0020F06D1012070E03E4A9A
:104E3000126812F0007F70D03B498A6822F00302AA
:104E400013438B6001F0CEFB0646374B9B6803F0A3
:104E50000C036A68B3EB820F16D001F0C3FB801B12
:104E600041F288339842F0D9032051E02E4A12686B
:104E700012F4003FE0D101204AE02B4A126812F4FC
:104E8000806FD9D1012043E02B6813F0020F06D0C8
:104E9000254A936823F0F003A9680B439360214BE4
:104EA0001B6803F00703A3420AD91E4A136823F0C4
:104EB000070323431360136803F00703A3422ED1B3
:104EC0002B6813F0040F06D0174A936823F4E063AD
:104ED000E9680B4393602B6813F0080F07D0124A60
:104EE000936823F46053296943EAC1039360FFF791
:104EF00003FC0D4B9B68C3F303130C4AD35C03F014
:104F00001F03D8400A4B18600A4B186801F064FB75
:104F100070BD012070470120FAE70120F8E7012069
:104F2000F6E700BF0020024000100240089700088A
:104F3000BC010020B8010020014B1868704700BF79
:104F4000BC01002008B5FFF7F7FF054B9B68C3F3D2
:104F50000223044AD35C03F01F03D84008BD00BFFE
:104F6000001002401897000808B5FFF7E5FF054B51
:104F70009B68C3F3C223044AD35C03F01F03D840E9
:104F800008BD00BF00100240189700080F230360FF
:104F90000B4B9A6802F0030242609A6802F0F0023A
:104FA00082609A6802F4E062C2609B68DB0803F4E6
:104FB000E0630361034B1B6803F007030B6070475A
:104FC0000010024000200240F8B504460F46594B3D
:104FD000DB6813F0030F18D0564BDB6803F00303B4
:104FE0000268934202D001252846F8BD002A00F04D
:104FF0009E80504BDB68C3F3021301334268934237
:1050000001D00125F0E7002509E00368022B57D005
:10501000032B5CD0012B42D00125002DE4D1454A61
:10502000136823F08063136001F0DCFA0646414BFD
:105030001B6813F0006F05D001F0D4FA831B022B1C
:10504000F5D90325002DCFD1002F4ED139490B6959
:1050500023F41F3323F44073A068E268120952045A
:1050600042EA002213430B61324A136843F0806323
:10507000136001F0B7FA06462E4B1B6813F0006F61
:1050800005D101F0AFFA831B022BF5D90325002DC2
:10509000AAD1284A1369A1690B431361A4E7254AE1
:1050A000126812F0020F1ED02248C26822F073026A
:1050B0006168013943EA01131343C3600025ACE77B
:1050C0001C4A126812F4806FEED10125A5E7194A37
:1050D000126812F4003FE7D1164A126812F4802FCA
:1050E000E2D1012599E7012597E7012F0FD011485B
:1050F000026922F0C06222F4FE42A16863695B0883
:10510000013B5B0643EA012313430361ACE7094813
:10511000026922F4C00222F4FE42A16823695B08FE
:10512000013B5B0543EA0123134303619CE701252F
:105130005AE700BF00100240F8B504460F46504B36
:10514000DB6813F0030F18D04D4BDB6803F003034B
:105150000268934202D001252846F8BD002A00F0DB
:105160008C80474BDB68C3F30213013342689342E0
:1051700001D00125F0E7002509E00368022B57D094
:10518000032B5CD0012B42D00125002DE4D13C4AF9
:10519000136823F08053136001F024FA0646384B5D
:1051A0001B6813F0005F05D001F01CFA831B022B73
:1051B000F5D90325002DCFD1002F4ED130494B69B1
:1051C00023F41F3323F44073A068E26812095204E9
:1051D00042EA002213434B61294A136843F080538B
:1051E000136001F0FFF90646254B1B6813F0005FC2
:1051F00005D101F0F7F9831B022BF5D90325002D0A
:10520000AAD11F4A536961690B435361A4E71C4A41
:10521000126812F0020F1ED01948C26822F0730201
:105220006168013943EA01131343C3600025ACE709
:10523000134A126812F4806FEED10125A5E7104AD7
:10524000126812F4003FE7D10D4A126812F4802F61
:10525000E2D1012599E7012597E70948426922F043
:10526000C06222F4FE42A16823695B08013B5B0631
:1052700043EA012313434361AEE701256CE700BF16
:10528000001002402DE9F04182B00446036813F497
:10529000006F33D0436EB3F5000F1FD00CD823B38B
:1052A000B3F5800F05D100212030FFF745FF0646FA
:1052B00020E001273E4623E0B3F5400F0BD1002646
:1052C000624AD2F8883023F44003616E0B43C2F87F
:1052D0008830002714E001273E4611E05B4AD3687E
:1052E00043F48033D3600026EAE700210430FFF75F
:1052F0006BFE0646002EE3D0374601E000273E460F
:10530000236813F4805F21D0A36EB3F1007F79D0BE
:105310000ED8002B7CD0B3F1807F06D1002104F1A0
:105320002000FFF709FF064605E001273E460DE095
:10533000B3F1407F63D1002E70D1444AD2F8883057
:1053400023F04073A16E0B43C2F88830236813F436
:10535000003F00F084803D4B9B6D13F0805F5FD178
:105360003A4B9A6D42F080529A659B6D03F08053E0
:105370000193019B4FF00108354A136843F4807391
:10538000136001F02FF90546314B1B6813F4807F41
:1053900005D101F027F9401B0228F5D90326002E7C
:1053A00058D12A4BD3F8903013F4407316D0D4F868
:1053B00084209A4212D0254AD2F8903023F44073C8
:1053C000D2F8901041F48031C2F89010D2F89010C9
:1053D00021F48031C2F89010C2F8903013F0010F20
:1053E00021D1002E40F03981184AD2F8903023F4B0
:1053F0004073D4F884100B43C2F890302BE001279F
:105400003E46A3E7114AD36843F48033D36092E762
:105410000021201DFFF7D8FD06468CE7374695E7AB
:105420004FF00008A8E701F0DDF80546074BD3F878
:10543000903013F0020FD4D101F0D4F8401B41F2A8
:1054400088339842F2D90326CBE700BF0010024010
:10545000007000403746B8F1000F40F0008123682B
:1054600013F0010F08D09D4AD2F8883023F00303CF
:10547000A16B0B43C2F88830236813F0020F08D0E9
:10548000964AD2F8883023F00C03E16B0B43C2F844
:105490008830236813F0040F08D0904AD2F888307F
:1054A00023F03003216C0B43C2F88830236813F0DB
:1054B000080F08D0894AD2F8883023F0C003616C05
:1054C0000B43C2F88830236813F0100F08D0834ACA
:1054D000D2F8883023F44073A16C0B43C2F88830B3
:1054E000236813F0200F08D07C4AD2F8883023F4C8
:1054F0004063E16C0B43C2F88830236813F4007FEB
:1055000008D0764AD2F8883023F44023E16D0B436B
:10551000C2F88830236813F4806F08D06F4AD2F83D
:10552000883023F44013216E0B43C2F8883023687F
:1055300013F0400F08D0694AD2F8883023F4405362
:10554000216D0B43C2F88830236813F0800F08D018
:10555000624AD2F8883023F44043616D0B43C2F8AD
:105560008830236813F4807F08D05C4AD2F88830F2
:1055700023F44033A16D0B43C2F88830236813F441
:10558000005F0FD0554AD2F8883023F04063E16EB7
:105590000B43C2F88830E36EB3F1006F65D0B3F10E
:1055A000806F67D0236813F4002F0FD04B4AD2F8D6
:1055B000883023F04063216F0B43C2F88830236F9B
:1055C000B3F1006F5ED0B3F1806F60D0236813F445
:1055D000802F0FD0414AD2F8883023F04063616FAA
:1055E0000B43C2F88830636FB3F1006F57D0B3F14B
:1055F000806F59D0236813F4804F0FD0374AD2F808
:10560000883023F04053A16F0B43C2F88830A36F5A
:10561000B3F1805F50D0B3F1005F55D0236813F42D
:10562000004F08D02D4AD2F8883023F08043E16F34
:105630000B43C2F88830236813F4803F09D0274A0F
:10564000D2F8883023F00043D4F880100B43C2F81E
:105650008830384602B0BDE8F0813746FBE61F4A85
:10566000936D23F080539365F9E6D36843F4801378
:10567000D36097E70121201DFFF7A6FC002891D0F9
:1056800007468FE7D36843F48013D3609EE7012178
:10569000201DFFF799FC002898D0074696E7D368AD
:1056A00043F48013D360A5E70121201DFFF78CFC94
:1056B00000289FD007469DE70221201DFFF784FCAC
:1056C0000028ABD00746A9E7022104F12000FFF72C
:1056D00033FD0028A2D00746A0E700BF001002401B
:1056E000054BD3F8902022F02002C3F890209A694D
:1056F00022F400729A61704700100240024A136857
:1057000043F004031360704700100240704700002C
:105710000368304A904212D0B0F1804F0FD0A2F50A
:10572000943290420BD002F58062904207D002F58D
:105730008062904203D002F59432904203D123F06C
:1057400070034A681343234A90421ED0B0F1804F41
:105750001BD0A2F59432904217D002F5806290429D
:1057600013D002F5806290420FD002F5943290423D
:105770000BD002F54062904207D002F58062904261
:1057800003D002F58062904203D123F44073CA68CB
:10579000134323F080034A69134303608B68C36299
:1057A0000B6883620B4B98420FD003F5006398425D
:1057B0000BD003F54063984207D003F5806398420D
:1057C00003D003F58063984201D10B690363012381
:1057D00043617047002C014060B310B5044690F857
:1057E0003D3013B3022384F83D30214651F8040BB9
:1057F000FFF78EFF012384F8483084F83E3084F8A8
:105800003F3084F8403084F8413084F8423084F8E6
:10581000433084F8443084F8453084F8463084F8C6
:10582000473084F83D30002010BD80F83C30FFF751
:105830006DFFD7E70120704710B401F01F0101236D
:1058400003FA01F4036A23EA04030362036A02FA17
:1058500001F10B4303625DF8044B704710B5044639
:10586000084600294BD194F83E30DBB2013B18BF0B
:105870000123002B40F0988000286BD1022384F88C
:105880003E30012201462068FFF7D6FF2368494ACF
:1058900093420FD002F5006293420BD002F54062B2
:1058A000934207D002F58062934203D002F58062F2
:1058B000934203D15A6C42F400425A6423683D4A31
:1058C000934263D0B3F1804F60D0A2F594329342FB
:1058D0005CD002F58062934258D002F58062934218
:1058E00054D002F59432934250D002F54062934274
:1058F0004CD01A6842F001021A60002055E00429D9
:105900000CD0082911D00C2916D010291BD094F8DE
:105910004330DBB2013B18BF0123AAE794F83F30C4
:10592000DBB2013B18BF0123A3E794F84030DBB2A0
:10593000013B18BF01239CE794F84130DBB2013BE7
:1059400018BF012395E794F84230DBB2013B18BF42
:1059500001238EE7042809D008280BD00C280DD08D
:1059600010280FD0022384F843308AE7022384F8FA
:105970003F3086E7022384F8403082E7022384F830
:1059800041307EE7022384F842307AE799680A4A78
:105990000A40062A0AD0B2F5803F09D01A6842F0C0
:1059A00001021A60002000E0012010BD0020FCE789
:1059B0000020FAE7002C01400700010070470000BA
:1059C000D0B50446016883680269134342691343F2
:1059D000C269134308689B4A024013430B60226864
:1059E000536823F44053E1680B435360A169226874
:1059F000954B9A4201D0236A1943936823F430638C
:105A00000B4393602268914B9A4210D0904B9A427C
:105A100021D0904B9A4237D08F4B9A425CD08F4B1B
:105A20009A426BD0884B9A427DD010233AE003F51E
:105A30005843D3F8883003F00303032B09D8DFE879
:105A400003F00204870601232CE004232AE0082344
:105A500028E0102326E003F5E633D3F8883003F07E
:105A60000C030C2B0ED8DFE803F0070D0D0D090D0C
:105A70000D0D750D0D0D0B00002313E0042311E037
:105A800008230FE010230DE003F5E433D3F888304A
:105A900003F03003202B5FD01AD8002B5ED0102BE0
:105AA0005ED1042368498A4276D0E069B0F5004FA0
:105AB00000F0A280082B00F20E81DFE813F0DD0079
:105AC000F300DB000C01F6000C010C010C01F900E5
:105AD000302B47D10823E5E703F5E233D3F88830CC
